:100000000C9463000C941A080C94F3070C944108A8
:100010000C9441080C9441080C948B000C948B00B8
:100020000C948B000C948B000C948B000C948B0024
:100030000C948B000C948B000C948B000C948B0014
:100040000C94A9070C948B000C9477070C9451071F
:100050000C948B000C948B000C948B000C948B00F4
:100060000C948B000C948B000000000024002700EF
:100070002A0000000008000201000003040700003D
:1000800000000000000000000000230026002900FE
:1000900000000000250028002B00040404040404D0
:1000A0000404020202020202030303030303010227
:1000B00004081020408001020408102001020408F6
:1000C0001020B9086F1011241FBECFEFD8E0DEBF9B
:1000D000CDBF23E0AAECB1E001C01D92AD31B20763
:1000E000E1F711E0A0E0B1E0E6E1FBE202C005903B
:1000F0000D92AA3CB107D9F710E0C2E6D0E004C0E7
:100100002197FE010E946F13C136D107C9F70E94E3
:10011000AA090C947E150C9400000895DC01ED9161
:10012000FC910190F081E02D0994DB0114964D9132
:100130005C9115976D917C91DC01ED91FC910280B1
:10014000F381E02D0994AF92BF92CF92DF92EF92AC
:10015000FF920F931F93CF93DF936C017B018B0171
:10016000040F151FEB015E01AE18BF08C017D107C1
:1001700059F06991D601ED91FC910190F081E02D4B
:10018000C6010995892B79F7C501DF91CF911F91A0
:100190000F91FF90EF90DF90CF90BF90AF900895B8
:1001A000FC01538D448D252F30E0842F90E0821B7D
:1001B000930B541710F0CF96089501970895FC0102
:1001C000918D828D981761F0A28DAE0FBF2FB11D5A
:1001D0005D968C91928D9F5F9F73928F90E00895B2
:1001E0008FEF9FEF08952FB7F89480911D029091A3
:1001F0001E02A0911F02B09120022FBF80932902FE
:1002000090932A02A0932B02B0932C0281E292E0F9
:100210000E94DF0097FF26C02FB7F89480911D023F
:1002200090911E02A0911F02B09120022FBF409119
:10023000290250912A0260912B0270912C02841B9A
:10024000950BA60BB70B40912502509126026091A9
:1002500027027091280284179507A607B707B0F206
:100260008FEF9FEF0895FC01918D828D981731F0EB
:10027000828DE80FF11D858D90E008958FEF9FEF3F
:100280000895FC01918D228D892F90E0805C9F4F15
:10029000821B91098F739927089581E292E00E9451
:1002A000410121E0892B09F420E0822F089580E0AC
:1002B00090E0892B29F00E944D0181110C940000DF
:1002C0000895FC01A48DA80FB92FB11DA35ABF4FEB
:1002D0002C91848D90E001968F739927848FA68945
:1002E000B7892C93A089B1898C91837080648C9399
:1002F000938D848D981306C00288F389E02D808148
:100300008F7D80830895EF92FF920F931F93CF9379
:10031000DF93EC0181E0888F9B8D8C8D98131AC040
:10032000E889F989808185FF15C09FB7F894EE8927
:10033000FF896083E889F989808183708064808384
:100340009FBF81E090E0DF91CF911F910F91FF90CF
:10035000EF900895F62E0B8D10E00F5F1F4F0F7377
:100360001127E02E8C8D8E110CC00FB607FCFACF32
:10037000E889F989808185FFF5CFCE010E9461016E
:10038000F1CFEB8DEC0FFD2FF11DE35AFF4FF08203
:100390009FB7F8940B8FEA89FB8980818062CFCF69
:1003A000CF93DF93EC01888D8823B9F0AA89BB89AC
:1003B000E889F9898C9185FD03C0808186FD0DC097
:1003C0000FB607FCF7CF8C9185FFF2CF808185FFB8
:1003D000EDCFCE010E946101E9CFDF91CF91089569
:1003E000833081F028F4813099F08230A9F00895AB
:1003F0008730A9F08830C9F08430B1F48091800052
:100400008F7D03C0809180008F7780938000089556
:1004100084B58F7784BD089584B58F7DFBCF80919F
:10042000B0008F778093B00008958091B0008F7DE9
:10043000F9CFCF93DF93282F30E0F901EE58FF4F2B
:100440008491F901E255FF4FD491F901E656FF4F2F
:10045000C491CC23A1F081110E94F001EC2FF0E0B7
:10046000EE0FFF1FEA57FF4FA591B491EC91ED23DA
:1004700081E090E009F480E0DF91CF91089580E081
:1004800090E0FACF1F93CF93DF93282F30E0F9014C
:10049000EE58FF4F8491F901E255FF4FD491F901D5
:1004A000E656FF4FC491CC23A9F0162F81110E946C
:1004B000F001EC2FF0E0EE0FFF1FE057FF4FA5918A
:1004C000B4918FB7F894EC91111108C0D095DE2348
:1004D000DC938FBFDF91CF911F910895DE2BF8CF72
:1004E000CF93DF9390E0FC01E255FF4F24918656B5
:1004F0009F4FFC0184918823D1F090E0880F991FD1
:10050000FC01E859FF4FA591B491FC01E057FF4F62
:10051000C591D49161110EC09FB7F8948C91E22FD0
:10052000E0958E238C932881E223E8839FBFDF919F
:10053000CF9108958FB7F894EC91E22BEC938FBF95
:10054000F6CF3FB7F89480910B0290910C02A091E6
:100550000D02B0910E0226B5A89B05C02F3F19F0E1
:100560000196A11DB11D3FBFBA2FA92F982F882733
:10057000BC01CD01620F711D811D911D42E0660F0E
:10058000771F881F991F4A95D1F708958F929F92E0
:10059000AF92BF92CF92DF92EF92FF924B015C013C
:1005A0000E94A1026B017C010E94A1026C197D09CD
:1005B0008E099F09683E734081059105A8F321E0EB
:1005C000821A9108A108B10888EEC80E83E0D81EEF
:1005D000E11CF11C81149104A104B10429F7FF90DE
:1005E000EF90DF90CF90BF90AF909F908F90089545
:1005F000089520911102309112022817390771F4E1
:1006000090910F0280911002981741F0E0910F0233
:10061000F0E0E653FE4F808190E008958FEF9FEF6A
:1006200008950895EF92FF920F931F93CF93DF9356
:10063000DC015C96ED90FC905D97E114F10479F497
:1006400081E090E013969C938E93129790E080E067
:10065000DF91CF911F910F91FF90EF9008955196E8
:10066000ED91FC91529750968C915097982F9095C0
:100670000FB75E962C915E97122F127021FD609538
:10068000F8942081112319F1282B2083E701219769
:10069000F1F728E0462F50E0308160FF1AC0382B78
:1006A0003083E7012197F1F7BA01759567952150DD
:1006B00089F7112381F08081892380830FBF5C96A5
:1006C0008D919C910197F1F781E090E0C1CF2923B2
:1006D000DCCF3923E5CF9081892BEFCF2091110218
:1006E000309112022817390771F48091100220917D
:1006F0000F0290E0805C9F4F821B910960E470E0E4
:100700000E942513089590E080E008952091110241
:100710003091120228173907B9F490910F02809195
:100720001002981789F0E0910F02F0E0E653FE4FB7
:10073000808120910F0230E02F5F3F4F2F733327CE
:1007400020930F0290E008958FEF9FEF089590E0BF
:1007500080E008952091040190E4299F90011124E4
:100760008E50822B80937C0080917A0080648093ED
:100770007A0080917A0086FDFCCF809178006091AC
:100780007900762F682F90E080E00E94B71020E07B
:1007900030E040E85AE30E9418112DEC3CEC4CE8A4
:1007A0005FE30E94181120E030E048EC52E40E9420
:1007B00018110895FC0124813581232B39F421E09F
:1007C000FB018081882349F020E007C0808191816E
:1007D0000E94601521E0892BB9F7822F0895FB0153
:1007E00001900020E9F73197AF01461B570BDC0160
:1007F000ED91FC910280F381E02D0994CF93DF937A
:1008000061E073E081E292E00E949500EC016FE20A
:1008100071E081E292E00E94EF038C0F9D1FDF9157
:10082000CF9108958F929F92AF92BF92EF92FF92D5
:100830000F931F93CF93DF93CDB7DEB7A1970FB67A
:10084000F894DEBF0FBECDBF7C01FA01CB0119A227
:10085000223008F42AE08E010F5D1F4F822E912C6A
:10086000B12CA12CBF01A50194010E943913F901FB
:10087000CA016A300CF5605DD8016E938D01232B9F
:10088000242B252B79F790E080E0109721F0BD0113
:10089000C7010E94EF03A1960FB6F894DEBF0FBE0A
:1008A000CDBFDF91CF911F910F91FF90EF90BF903F
:1008B000AF909F908F900895695CDECFAB01770F6A
:1008C000660B770B2AE00C9412042F923F924F9202
:1008D0005F926F927F928F929F92AF92BF92CF92D0
:1008E000DF92EF92FF921F93CF93DF93EC016A01A7
:1008F0007B01722EAB019601CB01B6010E94201341
:1009000062E371E0811126C046015701E894B7F80F
:100910002FEF3FEF4FE75FE7C501B4010E942013BF
:1009200081110CC02FEF3FEF4FE75FE7C501B40126
:100930000E94B21066E371E0181664F02FEF3FEFEB
:100940004FE75FE4C701B6010E941B131816B4F409
:100950006AE371E0CE01DF91CF911F91FF90EF909C
:10096000DF90CF90BF90AF909F908F907F906F90CF
:100970005F904F903F902F900C94EF032FEF3FEF3D
:100980004FE75FECC701B6010E94B21087FDE0CFD0
:1009900020E030E0A901C701B6010E94B210312C5D
:1009A000212C87FF09C06DE2CE010E948E001C0140
:1009B000F7FAF094F7F8F09410E060E070E080E06F
:1009C0009FE3711641F020E030E040E251E40E94E4
:1009D0007A121F5FF6CFA70196010E940E122B011B
:1009E0003C010E94EC124B015C012AE0BC01A40115
:1009F000CE010E9412047C01E20CF31C1123C1F110
:100A0000C501B4010E94B7109B01AC01C301B20142
:100A10000E940D124B015C016EE2CE010E948E001D
:100A2000E80EF91E115020F120E030E040E251E4E0
:100A3000C501B4010E9418112B013C010E94EC1267
:100A40004B01B12CA12C2AE0B501A401CE010E94DA
:100A50001204E80EF91EC501B4010E94B7109B01F3
:100A6000AC01C301B2010E940D124B015C01DACF4F
:100A7000C701DF91CF911F91FF90EF90DF90CF9052
:100A8000BF90AF909F908F907F906F905F904F90AE
:100A90003F902F9008950C94EF0361E08BE00E944B
:100AA00042026EEF8EEB92E00E94120361E08EEB49
:100AB00092E00E9412036AE070E080E090E00E9401
:100AC000C6026EEF8EEB92E00E94120360E88EEB9E
:100AD00092E00E9412036EE371E08EEB92E00E94BE
:100AE0004B056EEF8EEB92E00E94120360EC8EEBF2
:100AF00092E00E9412036FE471E08EEB92E00E949C
:100B00004B0587E00E94190221E0892B09F020E0C3
:100B10002093140288E00E94190221E0892B09F039
:100B200020E0209313028EE090E00E94AA036093DD
:100B3000190270931A0280931B0290931C028FE09B
:100B400090E00E94AA0360931502709316028093AE
:100B500017029093180267E073E081E292E00E942E
:100B6000950060E671E081E292E00E944B0563E14E
:100B700073E081E292E00E94950060E671E081E21C
:100B800092E00E944B056BEF72E081E292E00E94DE
:100B9000950060E671E081E292E00E944B056CE80E
:100BA00071E081E292E00E944B0560E671E081E233
:100BB00092E00E944B0562E671E081E292E00E94C1
:100BC0004B0560E671E081E292E00E944B054091A6
:100BD000190250911A0260911B0270911C0222E0CE
:100BE00081E292E00E94650460E671E081E292E0B9
:100BF0000E944B0540911502509116026091170218
:100C00007091180222E081E292E00E94650460E6A1
:100C100071E081E292E00E944B056091140270E065
:100C200081E292E00E945E0460E671E081E292E07F
:100C30000E944B056091130270E081E292E00E94F5
:100C40005E0460E671E081E292E00E944B050E9442
:100C5000FE0360ED77E080E090E00E94C60260E075
:100C60008BE00C9442020F931F93CF93DF938C0180
:100C7000EB01FC01808191810097E1F0688179812D
:100C800061157105A9F0428153812C813D81421784
:100C9000530770F00E9469158C819D81F80195833E
:100CA00084831D821C82DF91CF911F910F91089543
:100CB0000E94111488819981F801918380838A812F
:100CC0009B81938382838C819D8195838483198208
:100CD00018821B821A82E5CFCF93DF93EC018881C3
:100CE0009981009711F00E941114198218821D82B7
:100CF0001C821B821A82DF91CF910895FC018081B2
:100D000091810C9411140F931F93CF93DF93EC01F7
:100D100088819981009759F02A813B8126173707EE
:100D200030F081E0DF91CF911F910F9108958B01F9
:100D30006F5F7F4F0E949A14009759F099838883C0
:100D40001B830A832C813D81232B59F7FC011082E0
:100D5000E8CF80E0E7CFEF92FF920F931F93CF93FE
:100D6000DF93EC017B01198218821B821A821D829B
:100D70001C82FB0101900020E9F731978F01061BCF
:100D8000170BB8010E948306811109C0CE01DF91C3
:100D9000CF911F910F91FF90EF900C946C061D83E3
:100DA0000C83B70188819981DF91CF911F910F91B9
:100DB000FF90EF900C946915EF92FF920F931F93A1
:100DC000CF93DF938C017B01EB0109900020E9F7C1
:100DD0002197C61BD70BBE010E948306811109C053
:100DE000C801DF91CF911F910F91FF90EF900C946C
:100DF0006C06F801D583C483B70180819181DF91AE
:100E0000CF911F910F91FF90EF900C946915CF92A5
:100E1000DF92EF92FF920F931F93CF93DF936C01BA
:100E20007B018A014617570720F48F2D7A01062F80
:100E3000182F61E371E0C6010E94AB06C091110357
:100E4000D0911203EC16FD06F8F40C171D0708F4F8
:100E5000E801E0910D03F0910E03EC0FFD1F1081EE
:100E6000108260910D0370910E036E0D7F1DC601FF
:100E70006115710599F00E94DC0680910D03909137
:100E80000E03C80FD91F1883C601DF91CF911F91A0
:100E90000F91FF90EF90DF90CF9008950E946C0625
:100EA000ECCF1F920F920FB60F9211242F933F9306
:100EB0004F935F936F937F938F939F93AF93BF9362
:100EC000EF93FF9381E292E00E946101FF91EF9125
:100ED000BF91AF919F918F917F916F915F914F9152
:100EE0003F912F910F900FBE0F901F9018951F925A
:100EF0000F920FB60F9211242F938F939F93EF931E
:100F0000FF93E0913102F09132028081E09137024B
:100F1000F091380282FD1BC0908180913A028F5F70
:100F20008F7320913B02821741F0E0913A02F0E08A
:100F3000EF5DFD4F958F80933A02FF91EF919F9166
:100F40008F912F910F900FBE0F901F901895808159
:100F5000F4CF1F920F920FB60F9211242F933F934D
:100F60008F939F93AF93BF9380911D0290911E0228
:100F7000A0911F02B091200230910A0223E0230FBA
:100F80002D3758F50196A11DB11D20930A028093BB
:100F90001D0290931E02A0931F02B0932002809125
:100FA0000B0290910C02A0910D02B0910E020196DD
:100FB000A11DB11D80930B0290930C02A0930D0212
:100FC000B0930E02BF91AF919F918F913F912F915E
:100FD0000F900FBE0F901F90189526E8230F0296D2
:100FE000A11DB11DD2CF1F920F920FB60F921124E7
:100FF0002F933F934F935F936F937F938F939F9321
:10100000AF93BF93EF93FF93E0910201F09103013F
:101010000995FF91EF91BF91AF919F918F917F9132
:101020006F915F914F913F912F910F900FBE0F9055
:101030001F9018951F920F920FB60F9211242F93A5
:101040003F934F935F936F937F938F939F93AF9350
:10105000BF93EF93FF93E0910001F0910101099597
:10106000FF91EF91BF91AF919F918F917F916F9180
:101070005F914F913F912F910F900FBE0F901F9056
:1010800018951F920F920FB60F9211242F933F9332
:101090004F935F936F937F938F939F93AF93BF9380
:1010A000EF93FF93E0911102F0911202309749F013
:1010B000A685B7858585968D91FF14C09C9189235F
:1010C000A1F4FF91EF91BF91AF919F918F917F918B
:1010D0006F915F914F913F912F910F900FBE0F90A5
:1010E0001F9018959C91892361F7A389B4899C91DD
:1010F0008589809589238C93868997890197F1F753
:10110000608D718DA685B785558538E020E0CB01CF
:101110000197F1F7822F90E095958795282F4C91B4
:10112000452309F02068315091F7868D81FD209587
:101130008091100290E001968F73992730910F02F1
:10114000381799F0A0911002B0E0A653BE4F2C932F
:1011500080931002828D938D0197F1F7A389B48952
:101160008C919589892B8C93ACCF868D8160868FED
:10117000F1CFCF92DF92EF92FF9210922402109261
:10118000230298EEC92E93E0D92EE12CF12CC092C7
:101190002502D0922602E0922702F09228028FE0E8
:1011A00091E0909322028093210285EC90E090934D
:1011B0002E0280932D0284EC90E090933002809375
:1011C0002F0280EC90E0909332028093310281EC08
:1011D00090E0909334028093330282EC90E09093FD
:1011E00036028093350286EC90E09093380280932B
:1011F000370210923A0210923B0210923C02109277
:101200003D0261E371E083E193E00E94AB0661E39C
:1012100071E08DE093E00E94AB0665E671E087E047
:1012200093E00E94AB0667E671E081E093E00E94E4
:10123000AB0669E671E08BEF92E00E94AB0661E3DA
:1012400071E085EF92E00E94AB0661E371E08FEE02
:1012500092E00E94AB0661E371E089EE92E00E94A9
:10126000AB0661E371E083EE92E00E94AB0661E3BE
:1012700071E08DED92E00E94AB061092C1021092D7
:10128000C002C092C202D092C302E092C402F092A5
:10129000C50281E291E09093BF028093BE0210925A
:1012A000D5021092D4021092D7021092D602109258
:1012B000D9021092D8021092DB021092DA026091E9
:1012C000DC026E7F6D7F6093DC026695617081E069
:1012D000682782E00E94420261E082E00E94700280
:1012E000E0EBF0E0E491E093CE02ECE9F0E0E49191
:1012F000F0E0EE0FFF1FE057FF4F85919491909320
:10130000D0028093CF0260E084E00E94700280915E
:10131000DC0281FD04C061E084E00E94420284E0BE
:101320008093CA02E2EBF0E0E491E093CB02EEE9B5
:10133000F0E0E491F0E0EE0FFF1FEA57FF4F8591D8
:1013400094919093CD028093CC02FF90EF90DF9028
:10135000CF900895CF93DF93CDB7DEB728970FB620
:10136000F894DEBF0FBECDBF789484B5826084BD93
:1013700084B5816084BD85B5826085BD85B5816099
:1013800085BD80916E00816080936E001092810017
:1013900080918100826080938100809181008160D2
:1013A0008093810080918000816080938000809193
:1013B000B10084608093B1008091B000816080931F
:1013C000B00080917A00846080937A0080917A00E6
:1013D000826080937A0080917A00816080937A00A5
:1013E00080917A00806880937A001092C10064EF47
:1013F00071E080E090E00E94C60260E083E00E941D
:10140000700261E083E00E9442028DE495E09093D7
:1014100003018093020180916900837F886080933B
:101420006900E99A60E085E00E94700260E086E071
:101430000E94700261E085E00E94420261E086E065
:101440000E944202E0913102F091320282E08083F8
:10145000E0912D02F0912E021082E0912F02F09186
:1014600030028FEC808310923902E0913502F091C6
:10147000360286E08083E0913302F091340280816D
:1014800080618083E0913302F09134028081886032
:101490008083E0913302F091340280818068808300
:1014A000E0913302F091340280818F7D808310922D
:1014B000D9021092D8021092D7021092D60210923E
:1014C000D5021092D4028DE991E09093DB028093D3
:1014D000DA029091CA02963108F047C02DEB30E055
:1014E0003093D5022093D4022BE931E03093D70218
:1014F0002093D6022CE231E03093D9022093D80217
:101500002091680084E0983048F031E09E3008F483
:1015100030E081E001C0880F3A95EAF7822B809392
:1015200068002DE630E0983050F02BE630E09E3039
:1015300030F02CE630E0963110F030E020E03093CF
:10154000D2022093D102292F30E0983008F08BC0CE
:1015500081E001C0880F9A95EAF78093D3028091C9
:10156000DA029091DB020197F1F78091D802909115
:10157000D902892B49F1E0911102F091120222E087
:10158000EE3BF20709F1309739F0A389B4899C91B9
:101590008589809589238C938091DC028E7F80934E
:1015A000DC021092100210920F028EEB92E09093E8
:1015B000120280931102E091D102F091D202808157
:1015C0009091D302892B808383E08093040160E0B3
:1015D00087E00E94700260E088E00E94700261E093
:1015E00087E00E94420261E088E00E94420261E0DE
:1015F00089E00E94700261E08AE00E94700261E06E
:101600008BE00E94700260E089E00E94420260E08C
:101610008AE00E94420260E08BE00E94420286E083
:101620000E941902892B39F485E00E94190269E6AB
:1016300071E0892B61F186E00E941902019701F1A6
:1016400086E00E941902892B09F4BDC086E00E9441
:101650001902019701F585E00E9419020197D9F45A
:101660006FE671E014C09E3040F42850310981E0EB
:1016700001C0880F2A95EAF770CF2E503109F7CFB5
:1016800085E00E941902892BD9F66BE671E083E1AF
:1016900093E00E94DC066EEF8EEB92E00E94120354
:1016A00061E08EEB92E00E9412036AE070E080E05D
:1016B00090E00E94C60261E771E08EEB92E00E942A
:1016C0004B056EEF8EEB92E00E94120362EC8EEB04
:1016D00092E00E94120362E871E08EEB92E00E94B9
:1016E0004B0564EF71E080E090E00E94C6026EEF6F
:1016F0008EEB92E00E94120361E08EEB92E00E947A
:1017000012036AE070E080E090E00E94C6026EE89A
:1017100071E08EEB92E00E944B056EEF8EEB92E053
:101720000E94120368EC8EEB92E00E94120363E1C8
:1017300073E08EEB92E00E94950064EF71E080E030
:1017400090E00E94C6026EEF8EEB92E00E941203C0
:1017500061E08EEB92E00E9412036AE070E080E0AC
:1017600090E00E94C60200E010E081E292E00E9458
:101770004101181619060CF01AC461E371E0CE019C
:1017800001960E94AB060E94F30097FD25C08F834F
:101790001886ED80FE803FEFE31AF30AB701CE0111
:1017A00001960E948306882371F329813A818D81F5
:1017B0009E81BE01695F7F4F820F931F0E94691552
:1017C000FE82ED82E0CF85E00E9419026DE671E0B5
:1017D000019709F03BCF5BCFBE016F5F7F4F8DE07C
:1017E00093E00E943306CE0101960E947E06E090AF
:1017F0001103F090120340910B0350910C03E41677
:10180000F50608F495C3C0900D03D0900E03C114E3
:10181000D10409F48DC36091070370910803611529
:10182000710509F485C3C6010E947015892B09F062
:101830007FC38091050390910603E816F90608F42A
:1018400077C360910103709102036115710509F47A
:101850006FC3F701E81BF90BCF018C0D9D1D0E9492
:101860006015892B09F064C343E050E062E070E04A
:10187000CE0101960E940707BE016F5F7F4F85EF83
:1018800092E00E943306CE0101960E947E0645E05A
:1018900050E064E070E0CE0101960E940707BE01AF
:1018A0006F5F7F4F8FEE92E00E943306CE0101966C
:1018B0000E947E0647E050E066E070E0CE010196AF
:1018C0000E940707BE016F5F7F4F89EE92E00E9482
:1018D0003306CE0101960E947E064AE050E068E0A1
:1018E00070E0CE0101960E940707BE016F5F7F4F37
:1018F00083EE92E00E943306CE0101960E947E069E
:101900004CE050E06BE070E0CE0101960E940707CA
:10191000BE016F5F7F4F8DED92E00E943306CE01D6
:1019200001960E947E066EEF8EEB92E00E941203FB
:1019300060EC8EEB92E00E9412036DE073E08EEBA0
:1019400092E00E9495006AE971E089EE92E00E94BF
:10195000DA03882309F42BC34091F3025091F40277
:1019600020911703309118034217530709F01FC342
:101970008091EF029091F002609113037091140333
:10198000009709F4ECC26115710539F4452B09F48F
:10199000F3C2FC01808190E0EDC20E946015EAC2B2
:1019A00062EA71E083EE92E00E94DA03882309F490
:1019B000C9C06BE671E08DED92E00E94DA038823E6
:1019C00009F458C060E089E00E94420287E00E946A
:1019D000190221E0892B09F420E02093140267E02A
:1019E00073E081E292E00E94950060E671E081E29E
:1019F00092E00E944B0563E173E081E292E00E9475
:101A0000950060E671E081E292E00E944B056BEF89
:101A100072E081E292E00E94950060E671E081E26E
:101A200092E00E944B0563EA71E081E292E00E943D
:101A30004B0560E671E081E292E00E944B056FE9A0
:101A400071E081E292E00E944B0560E671E081E284
:101A500092E00E944B056DED72E081E292E00E94FF
:101A6000950060E671E081E292E00E944B05609192
:101A7000140260C06DE671E08DED92E00E94DA0321
:101A8000882309F494C260E08AE00E94420288E060
:101A90000E94190221E0892B09F420E0209313020F
:101AA00067E073E081E292E00E94950060E671E0F9
:101AB00081E292E00E944B0563E173E081E292E0F3
:101AC0000E94950060E671E081E292E00E944B0581
:101AD0006BEF72E081E292E00E94950060E671E0B7
:101AE00081E292E00E944B0563EA71E081E292E0BC
:101AF0000E944B0560E671E081E292E00E944B0596
:101B00006FE971E081E292E00E944B0560E671E0CE
:101B100081E292E00E944B056DED72E081E292E07D
:101B20000E94950060E671E081E292E00E944B0520
:101B30006091130281E0682770E081E292E00E94E8
:101B40005E04EDC16FE971E083EE92E00E94DA037A
:101B5000882309F4BAC06BE671E08DED92E00E9433
:101B6000DA03882309F454C087E00E94190221E0B7
:101B7000892B09F020E02093140267E073E081E2F2
:101B800092E00E94950060E671E081E292E00E949E
:101B90004B0563E173E081E292E00E94950060E60C
:101BA00071E081E292E00E944B056BEF72E081E20E
:101BB00092E00E94950060E671E081E292E00E946E
:101BC0004B0563EA71E081E292E00E944B0560E61A
:101BD00071E081E292E00E944B056FE971E081E2E1
:101BE00092E00E944B0560E671E081E292E00E9483
:101BF0004B056DED72E081E292E00E94950060E697
:101C000071E081E292E00E944B056091140294CF52
:101C10006DE671E08DED92E00E94DA03882309F40D
:101C2000C6C188E00E94190221E0892B09F020E05A
:101C30002093130267E073E081E292E00E94950036
:101C400060E671E081E292E00E944B0563E173E09F
:101C500081E292E00E94950060E671E081E292E00C
:101C60000E944B056BEF72E081E292E00E949500CA
:101C700060E671E081E292E00E944B0563EA71E068
:101C800081E292E00E944B0560E671E081E292E021
:101C90000E944B056FE971E081E292E00E944B05E2
:101CA00060E671E081E292E00E944B056DED72E02A
:101CB00081E292E00E94950060E671E081E292E0AC
:101CC0000E944B056091130237CF65EA71E083EE05
:101CD00092E00E94DA03882341F068EA71E08DED1A
:101CE00092E00E94DA038111A6C06AEA71E083EEF5
:101CF00092E00E94DA03882309F459C16CE871E08C
:101D00008DED92E00E94DA03882309F450C187E048
:101D10000E94190221E0892B09F020E0209314028F
:101D200088E00E94190221E0892B09F020E020932D
:101D300013028EE090E00E94AA0360931902709350
:101D40001A0280931B0290931C028FE090E00E9485
:101D5000AA03609315027093160280931702909362
:101D6000180267E073E081E292E00E94950060E66D
:101D700071E081E292E00E944B0563E173E081E251
:101D800092E00E94950060E671E081E292E00E949C
:101D90004B056BEF72E081E292E00E94950060E6F5
:101DA00071E081E292E00E944B0563EA71E081E21A
:101DB00092E00E944B0560E671E081E292E00E94B1
:101DC0004B056AEA71E081E292E00E944B0560E611
:101DD00071E081E292E00E944B054091190250911E
:101DE0001A0260911B0270911C0222E081E292E0D3
:101DF0000E94650460E671E081E292E00E944B057A
:101E000040911502509116026091170270911802CC
:101E100022E081E292E00E94650460E671E081E2E6
:101E200092E00E944B056091140270E081E292E022
:101E30000E945E0441CF8EE090E00E94AA0360936E
:101E4000190270931A0280931B0290931C028FE078
:101E500090E00E94AA03609315027093160280938B
:101E600017029093180267E073E081E292E00E940B
:101E7000950060E671E081E292E00E944B0563E12B
:101E800073E081E292E00E94950060E671E081E2F9
:101E900092E00E944B056BEF72E081E292E00E94BB
:101EA000950060E671E081E292E00E944B0563EAF2
:101EB00071E081E292E00E944B0560E671E081E210
:101EC00092E00E944B0565EA71E081E292E00E9497
:101ED0004B0560E671E081E292E00E944B05409183
:101EE000190250911A0260911B0270911C0222E0AB
:101EF00081E292E00E94650460E671E081E292E096
:101F00000E944B05409115025091160260911702F4
:101F10007091180222E081E292E00E94650460E67E
:101F200071E081E292E00E944B050E94FE033FC0F7
:101F30006EEF8EEB92E00E94120361E08EEB92E076
:101F40000E9412036AE070E080E090E00E94C60206
:101F50006DEA71E08EEB92E00E944B0528C061159E
:101F6000710551F0232B41F0FB01808190E09195A8
:101F700081959109892BD9F46CE971E083EE92E0A7
:101F80000E94DA03882309F40BCD6BE671E08DED36
:101F900092E00E94DA0361E0811115CD6DE671E0F7
:101FA0008DED92E00E94DA0361E081116DCD8EE04B
:101FB00090E00E94AA036093190270931A02809322
:101FC0001B0290931C028FE090E00E94AA03609392
:101FD000150270931602809317029093180287E0FF
:101FE0000E94190221E0892B09F020E020931402BD
:101FF00088E00E94190221E0892B09F020E020935B
:1020000013026EEF8EEB92E00E94120360E88EEBFB
:1020100092E00E94120369EB71E08EEB92E00E9465
:102020004B056EEF8EEB92E00E94120360E88EEBA0
:1020300092E00E9412034091190250911A0260919D
:102040001B0270911C0222E08EEB92E00E9465045C
:1020500067EC71E08EEB92E00E944B054091150217
:1020600050911602609117027091180222E08EEBD7
:1020700092E00E9465046EEF8EEB92E00E941203E4
:102080006DE88EEB92E00E9412036091140270E002
:102090008EEB92E00E945E046EEF8EEB92E00E9467
:1020A00012036FE88EEB92E00E941203609113021C
:1020B00070E08EEB92E00E945E0464EF71E080E0DD
:1020C00090E00E94C6020115110509F44ECB0E9452
:1020D0004D01882309F449CB0E94000046CB81E2E0
:1020E00091E09093BF028093BE0280911102909183
:1020F00012028E5B924071F4E091D102F091D20213
:1021000090818091D302809589238083109212025E
:10211000109211028DED92E00E947E0683EE92E015
:102120000E947E0689EE92E00E947E068FEE92E08B
:102130000E947E0685EF92E00E947E068BEF92E081
:102140000E947E0681E093E00E947E0687E093E095
:102150000E947E068DE093E00E947E0683E193E07C
:102160000C947E060E94F41008F481E00895E8942F
:1021700009C097FB3EF490958095709561957F4FCF
:102180008F4F9F4F9923A9F0F92F96E9BB2793957D
:10219000F695879577956795B795F111F8CFFAF48D
:1021A000BB0F11F460FF1BC06F5F7F4F8F4F9F4FBE
:1021B00016C0882311F096E911C0772321F09EE81C
:1021C000872F762F05C0662371F096E8862F70E082
:1021D00060E02AF09A95660F771F881FDAF7880F5C
:1021E0009695879597F90895990F0008550FAA0BB2
:1021F000E0E8FEEF16161706E807F907C0F012161A
:102200001306E407F50798F0621B730B840B950B1C
:1022100039F40A2661F0232B242B252B21F4089571
:102220000A2609F4A140A6958FEF811D811D08950E
:102230000E942B110C949C110E948E1138F00E9468
:10224000951120F0952311F00C9485110C948B11AD
:1022500011240C94D0110E94AD1170F3959FC1F31D
:10226000950F50E0551F629FF001729FBB27F00D44
:10227000B11D639FAA27F00DB11DAA1F649F662799
:10228000B00DA11D661F829F2227B00DA11D621FE8
:10229000739FB00DA11D621F839FA00D611D221FA2
:1022A000749F3327A00D611D231F849F600D211D86
:1022B000822F762F6A2F11249F5750409AF0F1F009
:1022C00088234AF0EE0FFF1FBB1F661F771F881F72
:1022D00091505040A9F79E3F510580F00C94851114
:1022E0000C94D0115F3FE4F3983ED4F38695779534
:1022F0006795B795F795E7959F5FC1F7FE2B880F18
:10230000911D9695879597F9089597F99F6780E8AD
:1023100070E060E008959FEF80EC089500240A9437
:102320001616170618060906089500240A941216B0
:102330001306140605060895092E0394000C11F4E3
:10234000882352F0BB0F40F4BF2B11F460FF04C090
:102350006F5F7F4F8F4F9F4F089557FD9058440FE9
:10236000551F59F05F3F71F04795880F97FB991FF4
:1023700061F09F3F79F087950895121613061406B1
:10238000551FF2CF4695F1DF08C01616170618063E
:10239000991FF1CF86957105610508940895E89419
:1023A000BB2766277727CB0197F908952F923F9295
:1023B0004F925F926F927F928F929F92AF92BF9255
:1023C000CF92DF92EF92FF920F931F93CF93DF9301
:1023D000CDB7DEB7CA1BDB0B0FB6F894DEBF0FBE5E
:1023E000CDBF09942A88398848885F846E847D84AB
:1023F0008C849B84AA84B984C884DF80EE80FD80AD
:102400000C811B81AA81B981CE0FD11D0FB6F89422
:10241000DEBF0FBECDBFED0108955058BB27AA27E0
:102420000E9425120C949C110E948E1138F00E947B
:10243000951120F039F49F3F19F426F40C948B1178
:102440000EF4E095E7FB0C948511E92F0E94AD1185
:1024500058F3BA17620773078407950720F079F4D9
:10246000A6F50C94CF110EF4E0950B2EBA2FA02DEB
:102470000B01B90190010C01CA01A0011124FF2731
:10248000591B99F0593F50F4503E68F11A16F0402C
:10249000A22F232F342F4427585FF3CF469537952B
:1024A0002795A795F0405395C9F77EF41F16BA0BF0
:1024B000620B730B840BBAF09150A1F0FF0FBB1F9E
:1024C000661F771F881FC2F70EC0BA0F621F731FE7
:1024D000841F48F4879577956795B795F7959E3F44
:1024E00008F0B0CF9395880F08F09927EE0F9795D5
:1024F000879508950E948E120C949C110E9495114C
:1025000058F00E948E1140F029F45F3F29F00C949E
:10251000851151110C94D0110C948B110E94AD11A6
:1025200068F39923B1F3552391F3951B550BBB2702
:10253000AA2762177307840738F09F5F5F4F220F47
:10254000331F441FAA1FA9F335D00E2E3AF0E0E83E
:1025500032D091505040E695001CCAF72BD0FE2F88
:1025600029D0660F771F881FBB1F2617370748071C
:10257000AB07B0E809F0BB0B802DBF01FF279358D4
:102580005F4F3AF09E3F510578F00C9485110C9402
:10259000D0115F3FE4F3983ED4F386957795679525
:1025A000B795F7959F5FC9F7880F911D9695879509
:1025B00097F90895E1E0660F771F881FBB1F621728
:1025C00073078407BA0720F0621B730B840BBA0BE6
:1025D000EE1F88F7E09508950E94B51188F09F5787
:1025E00098F0B92F9927B751B0F0E1F0660F771F37
:1025F000881F991F1AF0BA95C9F714C0B13091F02D
:102600000E94CF11B1E008950C94CF11672F782F5D
:102610008827B85F39F0B93FCCF3869577956795F1
:10262000B395D9F73EF490958095709561957F4F5D
:102630008F4F9F4F08950E94F41008F48FEF089574
:102640000E94F410880B990B089597FB072E16F43F
:10265000009407D077FD09D00E945B1307FC05D0DA
:102660003EF4909581959F4F0895709561957F4FA9
:102670000895A1E21A2EAA1BBB1BFD010DC0AA1FC3
:10268000BB1FEE1FFF1FA217B307E407F50720F0DB
:10269000A21BB30BE40BF50B661F771F881F991F56
:1026A0001A9469F760957095809590959B01AC019F
:1026B000BD01CF010895AA1BBB1B51E107C0AA1F92
:1026C000BB1FA617B70710F0A61BB70B881F991FD3
:1026D0005A95A9F780959095BC01CD010895EE0F0C
:1026E000FF1F0590F491E02D09940F931F93CF9352
:1026F000DF938230910510F482E090E0E0911B03BB
:10270000F0911C0330E020E0B0E0A0E0309799F4B5
:102710002115310509F44AC0281B390B2430310535
:10272000D8F58A819B816115710589F1FB0193833D
:102730008283FE0111C040815181028113814817BB
:102740005907E0F04817590799F4109761F012966D
:102750000C93129713961C933296CF01DF91CF9171
:102760001F910F91089500931B0310931C03F4CF46
:102770002115310551F04217530738F0A901DB014B
:102780009A01BD01DF01F801C1CFEF01F9CF9093AC
:102790001C0380931B03CDCFFE01E20FF31F819337
:1027A00091932250310939832883D7CF209119037F
:1027B00030911A03232B41F4209107013091080135
:1027C00030931A03209319032091050130910601DB
:1027D0002115310541F42DB73EB7409109015091C3
:1027E0000A01241B350BE0911903F0911A03E2173B
:1027F000F307A0F42E1B3F0B2817390778F0AC0124
:102800004E5F5F4F2417350748F04E0F5F1F509300
:102810001A0340931903819391939FCFF0E0E0E076
:102820009CCFCF93DF930097E9F0FC01329713829E
:102830001282A0911B03B0911C03ED0130E020E057
:102840001097A1F420813181820F931F20911903E9
:1028500030911A032817390709F061C0F0931A0361
:10286000E0931903DF91CF910895EA01CE17DF07B6
:10287000E8F54A815B819E0141155105B1F7E901F7
:10288000FB83EA8349915991C40FD51FEC17FD07CB
:1028900061F4808191810296840F951FE9019983EB
:1028A0008883828193819B838A83F0E0E0E01296A3
:1028B0008D919C9113970097B9F52D913C911197AB
:1028C000CD010296820F931F2091190330911A03B4
:1028D0002817390739F6309751F510921C031092DA
:1028E0001B03B0931A03A0931903BCCFD383C283F5
:1028F00040815181840F951FC817D90761F44E5F3D
:102900005F4F88819981480F591F518340838A8185
:102910009B81938382832115310509F0B0CFF09319
:102920001C03E0931B039ECFFD01DC01C0CF13828B
:102930001282D7CFB0E0A0E0E0EAF4E10C94D81125
:102940008C01009751F4CB010E9475138C01C801D2
:10295000CDB7DEB7E0E10C94F411FC01E60FF71FF0
:102960009C0122503109E217F30708F49DC0D901F8
:10297000CD91DC911197C617D70798F0C530D105D6
:1029800030F3CE0104978617970708F3C61BD70BC1
:102990002297C193D1936D937C93CF010E94111420
:1029A000D6CF5B01AC1ABD0A4C018C0E9D1EA091C6
:1029B0001B03B0911C03512C412CF12CE12C1097DE
:1029C00031F58091190390911A038815990509F042
:1029D0005CC04616570608F058C0809105019091DA
:1029E0000601009741F48DB79EB7409109015091BF
:1029F0000A01841B950BE817F90708F055C0F093FE
:102A00001A03E0931903F90171836083A0CF8D91BC
:102A10009C91119712966C90129713967C90139735
:102A2000A815B90559F56C0142E0C40ED11CCA14B1
:102A3000DB0420F1AC014A195B09DA011296159703
:102A400080F06282738251834083D9016D937C93BD
:102A5000E114F10471F0D7011396FC93EE931297F1
:102A600076CF22968C0F9D1FF90191838083F3010D
:102A7000EFCFF0931C03E0931B0369CF4816590670
:102A800008F42C017D01D3019ACFCB010E9475136C
:102A90007C01009749F0AE01B8010E945715C801AA
:102AA0000E941114870153CF10E000E050CFFB01CA
:102AB000DC0102C001900D9241505040D8F70895BA
:102AC000FB01DC018D91019080190110D9F3990B64
:102AD0000895FB01DC0101900D920020E1F70895BB
:102AE000FB01DC014150504030F08D910190801984
:102AF00019F40020B9F7881B990B089510E0C2E67D
:102B0000D0E004C0FE010E946F132196C336D107A6
:062B1000C9F7F894FFCFA5
:102B1600F802F8020100001D038000000000008397
:102B260001A300D000D0014101DF00330100000005
:102B3600001203A300A70311036E038603F9020D17
:102B46000A006E616E00696E66006F766600202070
:102B5600454D455247454E4359212121202000200D
:102B66002050414E4943205052455353454420007E
:102B76002C0050420040002A003000310032003361
:102B8600004D756C74692044657669636520505202
:102B96004A005053414D203244332045410044659C
:102BA60076204E756D6265723A00430053520052AC
:102BB60052004352004754005300474100496E7685
:102BC600616C6964204D736700202020202020203E
:0A2BD60020202020202020202000D5
:00000001FF
